:0200000480007A
:1000000073700430735040309711001093818185D4
:1000100017010110130101FF97020000938242278C
:100020007390523073F051301705000013054509E5
:10003000970500009385C5086300B50217360000D8
:100040001306C68763FAC5008322050023A0550066
:1000500011059105E3EAC5FE173500001305058675
:1000600097050010938505FA1386C18163FAC500D0
:100070008322050023A0550011059105E3EAC5FE82
:100080001385C181938581956377B5002320050091
:100090001105E36DB5FE3D2517150000130585100C
:1000A000EF10600FEF102013EF001028014581457D
:0A00B000EF00B03DEF00303901A071
:1000BC00011122CE00102326A4FE938741822547EE
:1000CC0098C3FD573E85724405618280011122CE92
:1000DC0000102326A4FE2324B4FE0327C4FE854768
:1000EC006307F7000327C4FE89476318F7008327CB
:1000FC0084FE0967D8C3814731A093874182254785
:10010C0098C3FD573E85724405618280011122CE51
:10011C0000102326A4FE85473E857244056182802B
:10012C00011122CE00102326A4FE2324B4FE232288
:10013C00C4FE81473E85724405618280797106D682
:10014C0022D40018232EA4FC232CB4FC232AC4FC98
:10015C008327C4FD99C3FD5739A8832784FD232623
:10016C00F4FE37350110CD26AA873E878327C4FEBF
:10017C002380E70085473E85B2502254456182803A
:10018C00011122CE00102326A4FE9707001093879E
:10019C00A7EC98438327C4FE3E97938781956360B1
:1001AC00F70297070010938727EB98438327C4FE29
:1001BC003E9797F700109387276463F4E700FD5789
:1001CC0005A897070010938727E998438327C4FE57
:1001DC003E9797070010938727E898C3970700105E
:1001EC00938787E798438327C4FEB307F040BA97F9
:1001FC003E85724405618280797106D622D400183E
:10020C00232EA4FC232CB4FC232AC4FC0325C4FDFC
:10021C00EF104013AA8799E3FD57B1A8832784FDFB
:10022C002324F4FE232604FE3DA8032784FE832703
:10023C00C4FEBA9703C70700A9476316F700B54574
:10024C0037350110C124032784FE8327C4FEBA97D7
:10025C0083C70700BE85373501106D248327C4FE84
:10026C0085072326F4FE0327C4FE832744FDE36E93
:10027C00F7FA832744FD3E85B250225445618280B3
:10028C005D7106C012C216C41AC61EC82ACA2ECC6C
:10029C0032CE36D03AD23ED442DC46DEF2C0F6C282
:1002AC00FAC4FEC6F322103416D6F322203416D824
:1002BC00F322003016DA732520348A856D2BB25266
:1002CC0073901234C25273902234D2527390023013
:1002DC0082401242A2423243C2435245E245724628
:1002EC0082561257A2576258F258064E964E264F17
:1002FC00B64F616173002030011122CE001023260D
:10030C00A4FE2324B4FE2322C4FE032744FE854707
:10031C00631DF700B70705100327C4FE98C3B70782
:10032C000510032784FE98CB85A0032744FE89473C
:10033C00631DF700B70705100327C4FED8C3B70722
:10034C000510032784FED8CB81A0032744FE8D47DC
:10035C00631DF700B70705100327C4FE98C7B7073E
:10036C000510032784FE98CF05A0032744FE914770
:10037C00631CF700B70705100327C4FED8C7B707DF
:10038C000510032784FED8CF0100724405618280DA
:10039C00411122C60008B7070510054798D3010084
:1003AC00324441018280011122CE00102326A4FE8A
:1003BC00B70705100327C4FED8D3010072440561AA
:1003CC008280411122C60008B707051023A007023E
:1003DC000100324441018280797122D60018232E0B
:1003EC00A4FC0327C4FD8547631AF700B707051063
:1003FC009C572326F4FE8327C4FEA9A00327C4FD23
:10040C008947631AF700B7070510DC572326F4FE5B
:10041C008327C4FE05A80327C4FD8D47631AF70084
:10042C00B70705109C5B2326F4FE8327C4FE19A88E
:10043C000327C4FD91476316F700B7070510DC5B73
:10044C0011A081473E85325445618280011122CE34
:10045C0000102326A4FE2324B4FE8327C4FE93B7E6
:10046C00170093F7F70F99C3FD5719A88327C4FEFC
:10047C00D84F832784FE5D8F8327C4FED8CF814756
:10048C003E85724405618280797122D60018232E34
:10049C00A4FC232CB4FC8327C4FD93B7170093F75B
:1004AC00F70F99C3FD5799A897070010938707BBBF
:1004BC009843832784FDB357F702FD172326F4FED8
:1004CC008327C4FD13070008D8C78327C4FEA18364
:1004DC0013F7F70F8327C4FDD8C38327C4FE13F784
:1004EC00F70F8327C4FD98C38327C4FD1307600C43
:1004FC0098C78327C4FD0D47D8C781473E85325422
:10050C0045618280011122CE00102326A4FEAE8705
:10051C00A305F4FE8327C4FE93B7170093F7F70FD8
:10052C0099C3FD5731A801008327C4FEDC4B93F718
:10053C000702FDDB0347B4FE8327C4FE98C3814743
:10054C003E85724405618280797122D60018232E73
:10055C00A4FC8327C4FD93B7170093F7F70F81C74B
:10056C009307F00F05A001008327C4FDDC4B858B9E
:10057C00E5DF8327C4FD9C432326F4FE8327C4FEBA
:10058C0093F7F70F3E85325445618280397106DE50
:10059C0022DC26DA80002326A4FC21668146232453
:1005AC00C4FE2326D4FE37060002B166B29603A61B
:1005BC0086FF83A6C6FF2322C4FE37060002B1665F
:1005CC00B29603A686FF83A6C6FF2320C4FEF3269D
:1005DC0000B0B6808686232ED4FC032604FE832628
:1005EC0044FEE30CD6FC37060002B166B29603A6B5
:1005FC0086FF83A6C6FF832604FEB306D640232CB3
:10060C00D4FCF32600B0B68006868326C4FDB30660
:10061C00D640232AD4FC032684FD8326C4FCE36441
:10062C00D6FC032644FD832684FD3356D60283264E
:10063C0084FEB304D602032644FD832684FDB376E0
:10064C00D60236878147832684FE3386F6028326BC
:10065C00C4FEB386E6023696832684FEB385E60294
:10066C00B3B8E6022E88B3071601BE88832784FD33
:10067C003E8381431A869E864285C685EF00E07ACA
:10068C002A87AE87BA87A6973E85F2506254D25419
:10069C0021618280011106CE22CC00100545FD356A
:1006AC0013054006E5352326A4FE8327C4FE3E85AC
:1006BC00F240624405618280411122C6000897070E
:1006CC0000109387A79937B7C4041307074098C342
:1006DC000100324441018280011106CE22CC00106F
:1006EC002326A4FE2324B4FE17250000130585DF62
:1006FC00EF00D0448325C4FE172500001305C5DF89
:10070C00EF009032F3271034BE808687BE85172504
:10071C000000130565DFEF003031F3273034BE8065
:10072C008687BE8517250000130505DFEF00D02F47
:10073C0001A0011106CE22CC00102326A4FE2324F6
:10074C00B4FE17250000130525DEEF00303F83258E
:10075C00C4FE17250000130525DAEF00F02CF32753
:10076C001034BE808687BE85172500001305C5D9B9
:10077C00EF00902BF3273034BE808687BE8517257B
:10078C000000130565D9EF00302A0100F2406244E5
:10079C0005618280011122CE0010232604FE0DA0DB
:1007AC0017070000130787F3938641838327C4FE42
:1007BC008A07B69798C38327C4FE85072326F4FEC1
:1007CC000327C4FEA947E3DDE7FC010001007244E6
:1007DC0005618280011122CE0010232604FE0DA09B
:1007EC0017070000130727F5938601868327C4FE9D
:1007FC008A07B69798C38327C4FE85072326F4FE81
:10080C000327C4FEC147E3DDE7FC232604FE0DA04D
:10081C0017070000130727F29386418A8327C4FE2B
:10082C008A07B69798C38327C4FE85072326F4FE50
:10083C000327C4FEA547E3DDE7FC01000100724479
:10084C0005618280011122CE00102326A4FE2324F0
:10085C00B4FE0327C4FEC54763EBE700138701868C
:10086C008327C4FE8A07BA97032784FE98C3010026
:10087C00724405618280397106DE22DC26DA800042
:10088C002326A4FC2324B4FC8327C4FC63DC070CC0
:10089C00232604FE0327C4FC8567FD17F98F232448
:1008AC00F4FE032784FEAD476319F708F32740F1E4
:1008BC00BE84A6872322F4FE832744FE1397C70029
:1008CC00B707200C9107BA972320F4FE832704FE68
:1008DC009C432324F4FE032784FEC14763E2E7080C
:1008EC0013870186832784FE8A07BA979C432326A5
:1008FC00F4FE8327C4FE81CB8327C4FE832584FCAE
:10090C000325C4FC8297832784FE232EF4FCF32753
:10091C0040F1BE84A687232CF4FC832784FD139717
:10092C00C700B707200C9107BA97232AF4FC83273A
:10093C0044FD0327C4FD98C325A01387418A832750
:10094C0084FE8A07BA979C432326F4FE8327C4FEB1
:10095C0081CB8327C4FE832584FC0325C4FC8297AA
:10096C00814739A0832584FC0325C4FC0128AA8770
:10097C003E85F2506254D25421618280797106D640
:10098C0022D40018232EA4FC232CB4FC0327C4FD72
:10099C008567FD17F98F2324F4FE032784FEA947EE
:1009AC0063ECE70013874183832784FE8A07BA9799
:1009BC009C432326F4FE39A097070000938707D2A7
:1009CC002326F4FE8327C4FE81CB8327C4FE832514
:1009DC0084FD0325C4FD829781473E85B250225485
:1009EC0045618280411106C622C40008172600000A
:1009FC001306C6B497250000938505B5172500008E
:100A0C00130545B5EF00500297250000938505B7F7
:100A1C00172500001305C5B6EF00100197F7FF0F5F
:100A2C009387C7639C43BE8517250000130585B6C5
:100A3C00EF00807F0100B240224441018280397175
:100A4C0006DE22DC26DA80002326A4FCAE872322D5
:100A5C00C4FCA305F4FC0327C4FCC14763F4E70002
:100A6C00FD577DA08347B4FC0327C4FC2326E4FE7A
:100A7C002324F4FE8327C4FE13972700B707000C2A
:100A8C00BA972322F4FE832744FE032784FE98C3DF
:100A9C000100832744FC99C7832744FCBE850325AA
:100AAC00C4FC4D338327C4FC2320F4FEF32740F110
:100ABC00BE84A687232EF4FC8327C4FD13977700EE
:100ACC00832704FE95838A073E97B727000CBA97B5
:100ADC00232CF4FC832784FD9C43232AF4FC8327DA
:100AEC0004FEFD8B0547B317F7003E87832744FDB3
:100AFC00D98F232AF4FC832784FD032744FD98C354
:100B0C00010085679384078073A0443001008147FE
:100B1C003E85F2506254D25421618280397106DED6
:100B2C0022DC26DA8000BD362A8797F7FF0F9387E1
:100B3C00E75298C3B705030037250110013AF16756
:100B4C0093850720373501108132693DA131593128
:100B5C00C5472326F4FE232404FE61A8832784FEC4
:100B6C002322F4FEF32740F1BE84A6872320F4FE53
:100B7C00832704FE13977700832744FE95838A0707
:100B8C003E97B727000CBA97232EF4FC8327C4FD9D
:100B9C009C43232CF4FC832744FEFD8B0547B317A1
:100BAC00F70093C7F7FF3E87832784FDF98F232C2B
:100BBC00F4FC8327C4FD032784FD98C3010083271D
:100BCC0084FE232AF4FC232804FC832744FD13977A
:100BDC002700B707000CBA972326F4FC8327C4FC24
:100BEC00032704FD98C30100832784FE8507232473
:100BFC00F4FE0327C4FE832784FEE3E1E7F62324F7
:100C0C0004FCF32740F1BE84A6872322F4FC83273F
:100C1C0044FC1397C700B707200CBA972320F4FCA9
:100C2C00832704FC032784FC98C301000100010006
:100C3C00F2506254D25421618280011122CE0010F4
:100C4C002326A4FE0100724405618280411122C654
:100C5C0000080100324441018280411122C6000883
:100C6C000100324441018280411122C60008938761
:100C7C000182054798C30100324441018280011171
:100C8C0006CE22CC0010232604FE172500001305E7
:100C9C00E591592BA14073A000300100170600000C
:100CAC001306C6FC85453D45593B2324A4FE8327EA
:100CBC0084FE99E71725000013050591B52331A093
:100CCC00172500001305859285239387C1819C43CA
:100CDC00BE851725000013052592B92317250000A2
:100CEC001305C59191230546B747464593858774EF
:100CFC00B71780221385773BEFF00FE00946B74713
:100D0C00424193854734B7B76ED41385974CEFF0B7
:100D1C00AFDE0D4681450145EFF00FDE11468145F2
:100D2C000145EFF06FDD172500001305258FED2928
:100D3C001725000013054590C5290145EFF0AFE6D6
:100D4C001725000013054590C52117250000130534
:100D5C006590D929EFF0CFE31725000013054590D6
:100D6C00E1218327C4FE99EB17250000130505909C
:100D7C0065298327C4FE85072326F4FE9387018209
:100D8C0098438547E31FF7FC172500001305458F93
:100D9C0061291145EFF04FE42A879387818098C32E
:100DAC000D45EFF06FE32A879387C18098C30945FF
:100DBC00EFF08FE22A879387018198C30545EFF006
:100DCC00AFE12A879387C18198C3EFF08FDF172596
:100DDC0000001305658C8929938781809C43BE850F
:100DEC00172500001305058D81219387C1809C4335
:100DFC00BE85172500001305E58B3D2193870181E6
:100E0C009C43BE85172500001305C58A312993879D
:100E1C00C1819C43BE85172500001305A589292196
:100E2C009387018223A007002DBFAA88AE87328842
:100E3C00368546836396062097260000938606889F
:100E4C0063FFC50A41676375E60A1307F00F333772
:100E5C00C7000E073355E600AA9683C60600130595
:100E6C0000023697B306E540630BE500B395D70057
:100E7C0033D7E8003318D600D98D3393D800935864
:100E8C000801B3D6150313160801418293570301C9
:100E9C0033F715033685B305D6024207D98F63FCA9
:100EAC00B700C2971385F6FF63E7070163F5B70038
:100EBC001385E6FFC2978D8F33F717034203135345
:100ECC000301B3D71703420733636700B306F60277
:100EDC003E86637BD30042931386F7FF6366030160
:100EEC006374D3001386E7FF4205518D81455DA8DD
:100EFC00370500014147E36FA6F46147A1BF01E646
:100F0C0005473358C7024167637FE8081307F00FA2
:100F1C006373070121453357A800BA9603C706002F
:100F2C00130600022A97B306E6406315E608B3875A
:100F3C000741854593580801131608014182135740
:100F4C000301B3F61703B3D71703C206558F330E3D
:100F5C00F6023E85637CC70142971385F7FF6367F2
:100F6C0007016375C7011385E7FF42973307C74134
:100F7C00B377170342031353030133571703C20705
:100F8C0033E36700B306E6023A86637BD3004293F1
:100F9C001306F7FF636603016374D3001306E7FFC0
:100FAC004205518D8280370700014145E365E8F623
:100FBC00614595B73318D80033D5E7003393D80083
:100FCC00B397D70033D7E800935808013366F7007E
:100FDC003377150393170801C183935506013355D5
:100FEC00150342074D8FB386A702AA85637CD700F1
:100FFC0042979305F5FF636707016375D700930567
:10100C00E5FF4297B306D74033F7160342064182F9
:10101C00B3D6160342073385D702B367C7003687AA
:10102C0063FCA700C2971387F6FF63E7070163F51C
:10103C00A7001387E6FFC297C205898FD98DDDBD46
:10104C0063E2D514416763FFE6021307F00FB33573
:10105C00D7008E0533D5B6001717000013070766A7
:10106C002A9703470700130500022E97B305E540A6
:10107C006311E5020545E3E7F6F233B5C800134505
:10108C0015000DB737070001C145E3E5E6FCE14566
:10109C00D1B73358E600B396B6003368D80033D3D3
:1010AC00E700935E0801B376D303B397B70033D749
:1010BC00E800331EB6003366F70093170801C183AE
:1010CC00135706013353D303C206558F338F670270
:1010DC001A85637CE70142971305F3FF63670701E9
:1010EC006375E7011305E3FF42973307E741B376D6
:1010FC00D7033357D703C2063383E702931706018E
:10110C00C183D58F3A8663FC6700C2971306F7FF3D
:10111C0063E7070163F567001306E7FFC297420513
:10112C00C16E518D9386FEFF13560E0113580501A7
:10113C00B38767403373D500B376DE00330ED3022A
:10114C00B306D80213570E013303C30236931A9712
:10115C003308C8026373D700769893560701369804
:10116C0063E00703E39407D9C167FD177D8F42073E
:10117C00337EFE00B398B80072978145E3F4E8E241
:10118C007D15ADB38145014531BDAA85814601462A
:10119C000145B5AE411122C426C217140000130438
:1011AC002471971400009384A470058C06C60984DE
:1011BC0011E4B24022449244410182807D14931781
:1011CC002400A6979C438297E5B7411122C426C2FE
:1011DC00171400001304C46D971400009384446D1D
:1011EC00818C4AC006C6898401496315990217147B
:1011FC0000001304E46B971400009384646B818CDF
:10120C0089840149631D9900B240224492440249E9
:10121C00410182801C40050911048297F9B71C40DA
:10122C00050911048297F9BF5D7122D406D62A8470
:10123C002EDA32DC36DEBAC0BEC2C2C4C6C603A5C4
:10124C00418111C51C4D81E72AC6612B32450C45E5
:10125C005418228636CEEF00B027B250225461616A
:10126C008280011126CA4AC806CE22CC4EC652C470
:10127C00AA842E8901C51C4D91E3A5239C4C804466
:10128C0099E32685B92B9717000093872755631C84
:10129C00F402C0408357C400A18BB1C71C48A1C73E
:1012AC00FD59294A1C4483450900FD17B1E91CC4AA
:1012BC0063DE07062286A94526857920FD5763083B
:1012CC00F502294535A0971700009387275363141F
:1012DC00F4008044C1B7971700009387274EE31B97
:1012EC00F4FAC04445BFA2852685392A55D97D55C7
:1012FC00F2406244D2444249B249224A056182809A
:10130C001CC4050963D70700184C63CBE70063893D
:10131C0045011C401387170018C02380B70059B72C
:10132C00228626851520E31F35F7D1B71C4013877D
:10133C00170018C029472380E70061B7AA8503A5C9
:10134C00418105B76FE09FDC011122CC26CA4AC847
:10135C0006CE4EC6AA842E89328401C51C4D91E35B
:10136C00492197170000938767476319F406C0401B
:10137C001C4C1CC48357C400A18BC9C31C48BDCFD3
:10138C001C4808409379F90F1379F90F1D8D5C48AF
:10139C006346F500A2852685052E2DE51C44050522
:1013AC00FD171CC41C401387170018C0238037017D
:1013BC005C486389A7008357C400858B81CBA94700
:1013CC006316F900A285268501260DEDF2406244D4
:1013DC00D244B2494A854249056182809717000080
:1013EC009387C7416314F400804459B797170000E2
:1013FC009387C73CE31EF4F6C0449DBFA2852685A7
:10140C0021203DDD7D59D9B7411122C426C24AC0E5
:10141C0006C683A441812A892E8489C49C4C99E3F5
:10142C002685C126971700009387473B6317F40264
:10143C00C0408317C4001397070193F687004183BC
:10144C00ADEA9376070195EA25472320E90093E757
:10145C0007042316F4007D5571A897170000938795
:10146C00E7396314F4008044E9B7971700009387B9
:10147C00E734E310F4FCC0446DBF118B0DC74C581E
:10148C0089C9930744046384F5004A858525232A7A
:10149C0004028357C4002322040093F7B7FD2316DC
:1014AC00F4001C481CC08357C40093E78700231624
:1014BC00F4001C4881EF8357C4001307002093F7F6
:1014CC0007286385E700A2854A85F1298317C400A4
:1014DC001397070193F6170041839DC254482324A8
:1014EC000400B306D04014CC1448014581E61377B0
:1014FC00070831FFB24022449244024941018280E4
:10150C0093762700014691E2504810C4F1BFAA8897
:10151C00138581821C4181EF1387C18C18C113057F
:10152C000000BA8709C51C412324F708BA87D843A1
:10153C007D487D556346E804638D080203A887083F
:10154C006300080413152700429510C103230810EB
:10155C0005463316E6003363C300232068102320AE
:10156C00D50889466397D80083264810558E2322C8
:10157C00C810930617000A07D4C3BA978CC7014545
:10158C00828083D7C500011122CC26CA06CE4AC858
:10159C004EC613F78700AA842E8475E3D84163479F
:1015AC00E000B8416344E000014575A858546DDF74
:1015BC00856603A90400F58F23A00400A5CF684815
:1015CC008357C400918B99C75C401D8D5C5899C39F
:1015DC003C401D8D5C540C502A8681462685829792
:1015EC00FD570357C400631DF5009440F54763E3B2
:1015FC00D708B70740208507B3D7D700858BBDCB5D
:10160C001C48232204001CC085677D8F19C7FD5719
:10161C006314F5009C4091E368C84C5823A0240146
:10162C00C1D5930744046384F5002685C121232A80
:10163C0004029DBF0C508546014626850297FD5736
:10164C00E310F5F89C40ADDF75476385E70059471B
:10165C006395E70023A0240181BF8357C40093E75F
:10166C0007042316F400F2406244D2444249B249C2
:10167C0005618280136707042316E400EDB783A984
:10168C000501E38309F203A905008D8B23A0350125
:10169C0033093941014791E3D84918C4E35620F185
:1016AC001C540C50CA864E8626858297634AA0002D
:1016BC008357C4007D5593E707042316F40065B7E0
:1016CC00AA993309A940D9BF9C49B9CF011122CCA1
:1016DC0006CE2A8411C51C4D81E72EC61922B245AF
:1016EC00971700009387870F639BF5004C408397F7
:1016FC00C50095C722856244F240056159B597171C
:10170C0000009387A70F6394F5000C44CDB797178F
:10171C0000009387A70AE39CF5FC4C44C9BFF24038
:10172C00624401450561828001458280411122C4D9
:10173C0006C62A842316B5002317C50023200500EE
:10174C002322050023240500232205062328050057
:10175C00232A0500232C0500214681451305C505C8
:10176C00D52497170000938767BA5CD097170000B1
:10177C009387C7BC1CD497170000938707C15CD410
:10178C00971700009387C7C3B24000D01CD82244DF
:10179C004101828097050000938545F391A2411188
:1017AC0026C2130680069384F5FFB384C4024AC094
:1017BC002E8922C406C693854407D12E2A8419C9C2
:1017CC002320050023222501310508C41386840635
:1017DC0081458D2CB240228522449244024941011C
:1017EC0082801C4DADE3411122C406C69707000050
:1017FC00938787FA1CD52324050423260504232864
:10180C00050483A781812A846314F50085471CCDC8
:10181C0022851D2848C02285052808C422852D2034
:10182C0048C4484001469145113708440546A54532
:10183C00F53D48440946C945D53D8547B2401CCCC9
:10184C002244410182808280411126C283A481817D
:10185C009C4C4AC006C622C42A8999E32685513776
:10186C00938484048044DC40FD1763D607009C40BD
:10187C00B1CF8440C5BF0317C40031E7C1778507DA
:10188C002322040623200400232204002324040022
:10189C005CC423280400232A0400232C04002146C2
:1018AC0081451305C405792A232A0402232C04023A
:1018BC002324040423260404B240228522449244A7
:1018CC000249410182801304840679BF91454A85FF
:1018DC00F93588C02A8451FDB1472320F900E9BFAE
:1018EC00797122D44AD04ECE52CC5AC85EC606D696
:1018FC0026D256CA2A892E8A130485048149054B9F
:10190C00FD5B0444832A4400FD1A63D00A020040A4
:10191C006DF8B250225492540259624AD24A424B48
:10192C00B24B4E85F2494561828083D7C400637BFC
:10193C00FB008397E40063877701A6854A85029AAA
:10194C00B3E9A90093848406C1B75971CAD02E8912
:10195C008395E500A2D4A6D286D63284B68463DC05
:10196C0005008317C90023A0040093F7070895E32B
:10197C00930700400DA03000EF00F029E34305FE73
:10198C003247BD67F98F7977BA9793B717009CC028
:10199C00C5B793070004B6501CC02654965406597C
:1019AC0001456561828083D7C500011122CC06CE2A
:1019BC0026CA4AC8898B2E8489CF930774041CC00D
:1019CC001CC885475CC8F2406244D2444249056158
:1019DC008280740030002A898D3FA245AA844A85F2
:1019EC007D2201ED8317C40013F7072069FFF19BDB
:1019FC0093E727002316F400C9B7970700009387D5
:101A0C00A7D92324F9028357C40008C008C893E758
:101A1C0007082316F400A2475CC8B24791CF831580
:101A2C00E4004A85EF00D02101C98357C400F19B23
:101A3C0093E717002316F4000355C400C98C231632
:101A4C00940051B73D432A876373C3029377F70021
:101A5C00BDEFADE5937606FF3D8ABA960CC34CC339
:101A6C000CC74CC74107E36BD7FE11E28280B3066B
:101A7C00C3408A069702000096966780A60023074B
:101A8C00B700A306B7002306B700A305B7002305CC
:101A9C00B700A304B7002304B700A303B7002303C4
:101AAC00B700A302B7002302B700A301B7002301BC
:101ABC00B700A300B7002300B700828093F5F50FA1
:101ACC0093968500D58D93960501D58D61B7939628
:101ADC0027009702000096968682E78086FA968009
:101AEC00C1171D8F3E96E374C3F8A5B7C5C183A774
:101AFC00C5FF011122CC06CE1384C5FF63D30700AA
:101B0C003E942AC6EF00B01A1387C1821C4332459B
:101B1C0089EB2322040000C36244F24005616F008C
:101B2C003019637DF4001040B306C4006396D700EF
:101B3C009443DC43B29614C05CC0F1BF3E87DC43D7
:101B4C0099C3E37DF4FE14433306D700631F86006C
:101B5C001040B29614C33306D700E39FC7FA9043E4
:101B6C00DC43B29614C35CC345BF6375C400B14774
:101B7C001CC15DB71040B306C4006396D7009443F4
:101B8C00DC43B29614C05CC040C379B782800111AB
:101B9C0026CA93843500F1984AC806CE22CC4EC68C
:101BAC00A104B1472A8963F2F404B14463E1B4049B
:101BBC004A85EF00D00F9386C18298423A8439E06F
:101BCC00138401831C4089E781454A85112F08C085
:101BDC00A6854A853127FD59631A3507B14723205D
:101BEC00F9004A85EF00D00C31A0E3D104FCB147D9
:101BFC002320F9000145F2406244D2444249B249E3
:101C0C00056182801C40858F63CF07022D46637669
:101C1C00F6001CC03E9404C029A05C4063138702EC
:101C2C009CC24A85EF00D0081305B400930744000A
:101C3C0061993307F540E300F5FC3A94898F1CC099
:101C4C005DBF5CC3F9BF2287404095BF13043500CC
:101C5C007198E30285FCB305A4404A855125E31C29
:101C6C0035FBADBF1C46FD171CC663DA0700184ECA
:101C7C0063C5E700A9476394F5006FF0EFEC1C42D5
:101C8C002E851387170018C22380B700828001119C
:101C9C0022CC26CA4AC84EC652C406CE2A89AE8960
:101CAC003284B304D6007D5A63149400014509A80C
:101CBC00834504004E864A8575370504E31645FFB7
:101CCC00F2406244D2444249B249224A05618280C0
:101CDC00357122CD26CB4AC94EC706CF52C556C345
:101CEC005AC1DEDEE2DCE6DAAA89AE8432893684B9
:101CFC0001C51C4D91E3F53497170000938707AE8F
:101D0C00639BF40C83A4490083D7C400A18BF5C753
:101D1C009C48E5C793070002A304F1029307000354
:101D2C0002D22305F10222C6930B5002971A00002F
:101D3C00938ACAAE054C294B4A848347040099C345
:101D4C006390770FB30C2441630D2401E6864A8619
:101D5C00A6854E852D3FFD576304F51E9257E697D9
:101D6C003ED283470400638D071CFD5713091400F2
:101D7C0002C802CE3ECA02CCA309010482D4834518
:101D8C000900154656853927C2471304190059E92D
:101D9C0013F7070109C713070002A309E10413F79E
:101DAC00870009C71307B002A309E10483460900A1
:101DBC001307A0026380E608F2474A848146254651
:101DCC000347040093051400130707FD6379E60A23
:101DDC00B5CA3ECE85A897170000938727A26395B6
:101DEC00F40083A489000DB7971700009387079D13
:101DFC00E39CF4F083A4C90001BFA6854E85EFF0E7
:101E0C00AFE009D97D55FA406A44DA444A49BA49E7
:101E1C002A4A9A4A0A4BF65B665CD65C0D61828054
:101E2C00050421BF330555413315AC00C98F3EC89D
:101E3C002289B1B7324793064700184336C6634927
:101E4C0007023ACE034704009307E002631FF7042E
:101E5C00034714009307A002631BF702B24709045F
:101E6C00138747009C433AC663C107023ECA35A894
:101E7C003307E04093E727003ACE3EC8E1B7B3877B
:101E8C0067032E848546BA9725BFFD57C5B7050451
:101E9C0002CA814681472546034704009305140076
:101EAC00130707FD6374E606F1F2834504000D4643
:101EBC001715000013050597F12B11CD971700008E
:101ECC00938747961D8D93070004B397A70042454F
:101EDC0005045D8D2AC883450400194617150000BA
:101EEC0013058594130914002304B10265232DC135
:101EFC009307000095E74247B2471377071009CFC5
:101F0C0091073EC69257D2973ED23DB5B387670331
:101F1C002E848546BA9749B79D07E19BA107D5B793
:101F2C007800970600009386C6D626860C084E8548
:101F3C0097000000E7000000FD572A8AE314F5FC27
:101F4C0083D7C40093F70704E39E07EA125565BDD7
:101F5C007800970600009386C6D326860C084E851B
:101F6C00012AD9BF797152CC9C493A8A984522D41E
:101F7C0026D24ECE56CA06D64AD05AC85EC6AA89B2
:101F8C002E84B284B68A63D3E700BA879CC0034719
:101F9C00340419C385079CC01C4093F7070281C702
:101FAC009C4089079CC00329040013796900631ABB
:101FBC000900130B9401FD5B5C449840998F634CB2
:101FCC00F90483473404B336F0001C4093F707023E
:101FDC00A5EB13063404D6854E85029AFD57630390
:101FEC00F5041C4011469840998B544481446397E6
:101FFC00C700B384E64063D3040081441C441848F2
:10200C006354F700998FBE94014969047D5B639812
:10201C002405014509A885465A86D6854E85029A1F
:10202C00631E75017D55B250225492540259F249E7
:10203C00624AD24A424BB24B456182800509ADBF20
:10204C003307D40013060003A301C7040347540449
:10205C0093871600A2978906A381E7049DBF854646
:10206C002286D6854E85029AE30E65FB050945B797
:10207C00797122D426D24AD04ECE06D652CC56CA2C
:10208C005AC803C8850193078007AA842E84328915
:10209C00B68963EE0701930720069386350463ED3A
:1020AC0007016305081C93078005630AF812930A5D
:1020BC0024042301040515A89307D8F993F7F70F07
:1020CC005546E366F6FE170600001306E6788A0707
:1020DC00B2979C43B29782871C43938A25049386BC
:1020EC0047009C4314C32381F50485475DA29C41A2
:1020FC00084313F60708930545000DC21C410CC399
:10210C0063D807001307D002B307F040A301E4041F
:10211C00170600001306C6712948A1A013F6070480
:10212C001C410CC371DEC207C187D9BF90411C434F
:10213C00137506089385470001C50CC39C4339A051
:10214C00137606040CC37DDA83D707001307F00659
:10215C00170600001306C66D6304E80E2948A30198
:10216C000404584018C4634507000C40ED990CC09A
:10217C0099E3B68A19CFB68A33F70703FD1A32975B
:10218C00034707002380EA003E87B3D70703E375B4
:10219C0007FFA147631EF8001C40858B91CB58406C
:1021AC001C4863C7E70093070003A38FFAFEFD1AD0
:1021BC00B386564114C84E87CA867000A285268500
:1021CC0055337D5A631B450D7D55B25022549254A4
:1021DC000259F249624AD24A424B45618280A3823B
:1021EC000505170600001306A6640C40084313F8F7
:1021FC0005081C411105630D080208C313F71500EF
:10220C0001C793E505020CC04148B1FB1840137798
:10221C00F7FD18C0A9B79C4193E707029CC193072F
:10222C008007A302F404170600001306A66175BF0D
:10223C0013F8050408C3E30308FCC207C1837DBF80
:10224C00214831BF90411C43CC49137806081385B3
:10225C0047006306080008C39C438CC301A808C34D
:10226C00137606049C4375DA2390B70023280400E8
:10227C00B68A91B71C43D04181459386470014C35D
:10228C0083AA07005685392401C53305554148C03A
:10229C005C401CC8A301040439BF14485686CA8587
:1022AC0026858299E30245F31C40898B8DE7B24762
:1022BC004844E35CF5F03E8509BF85465686CA85E1
:1022CC0026858299E30265F1050A5C443247998FB1
:1022DC00E345FAFEE9BF014A930A94017D5BF5B729
:1022EC00411122C42A842E8523A2018206C6EFD076
:1022FC003FE9FD576316F50083A7418291C31CC0CB
:10230C00B240224441018280411122C42E84839523
:10231C00E50006C6792A634905007C48AA977CC863
:10232C00B2402244410182808357C4007D777D17DF
:10233C00F98F2316F400EDB783D7C500011122CC19
:10234C0026CA4AC84EC606CE93F70710AA842E8416
:10235C003289B68991C78395E500894601462922C1
:10236C008357C4007D777D17F98F8315E4002316FE
:10237C00F4006244F240CE864A86B2494249268530
:10238C00D24405613DA8411122C42E848395E500F9
:10239C0006C6D928FD570357C400631BF500FD770B
:1023AC00FD17F98F2316F400B240224441018280BC
:1023BC008567D98F2316F40068C8FDB78395E500AF
:1023CC003DA0411122C42A842E85B285368623A2D3
:1023DC00018206C6EFD05FE2FD576316F50083A7B6
:1023EC00418291C31CC0B240224441018280411100
:1023FC0022C42A842E8523A2018206C6EFD05FCB8D
:10240C00FD576316F50083A7418291C31CC0B240EF
:10241C00224441018280411122C42A842E85B28536
:10242C0023A2018206C6EFD07FCAFD576316F500C2
:10243C0083A7418291C31CC0B240224441018280D7
:10244C00411122C42A842E8523A2018206C6EFD014
:10245C00FFCBFD576316F50083A7418291C31CC0C7
:10246C00B240224441018280411122C42A842E852B
:10247C00B285368623A2018206C6EFD07FCAFD57ED
:10248C006316F50083A7418291C31CC0B24022445D
:10249C004101828093F5F50F2A966314C50001451E
:1024AC00828083470500E38DB7FE0505FDB782806A
:1024BC008280411122C42A842E85B285368623A2BD
:1024CC00018206C6EFD09FC7FD576316F50083A7A0
:0E24DC00418291C31CC0B24022444101828063
:1024EC005472617020696E20457863657074696FF1
:1024FC006E0D00004D43415553453A203078256C04
:10250C00780D0A004D45504320203A203078256C38
:10251C00780D0A004D5456414C203A203078256CE9
:10252C00780D0A005472617020696E20496E7465D2
:10253C0072727570740D000031393A31323A31349F
:10254C00000000004F6374203231203230323200F0
:10255C0048756D6D696E67426972642053444B20F7
:10256C004275696C642054696D653A2025732C2082
:10257C0025730D0A00000000494C4D00446F776E26
:10258C006C6F6164204D6F64653A2025730D0A00F1
:10259C00435055204672657175656E637920256CC4
:1025AC007520487A0D0A0000496E697469616C697E
:1025BC007A696E6720696E746572727570740A0D33
:1025CC0000000000496E697469616C697A696E6714
:1025DC0020696E74657272757074207375636365AF
:1025EC00737366756C0A0D006661696C65640A0D1F
:1025FC00000000002558000053656E64696E67206A
:10260C00706C61696E207465787420616E64206BE7
:10261C0065790A0D0000000053656E64696E6720D1
:10262C0074657874205375636365737366756C6C2D
:10263C00790A0D004D6F64696679204D6F64650AE7
:10264C000D0000004D6F6469666965640A0D000039
:10265C00456E61626C696E670A0D0000456E6162C1
:10266C006C65640A0D000000456E74657220776815
:10267C00696C65206C6F6F700A0D00005265747286
:10268C006965766520646174612073756363657335
:10269C00730A0D000A0D54686520646563727970C5
:1026AC0074696F6E206F66204445533A0A0D000022
:1026BC000925580A0000000000010202030303036D
:1026CC0004040404040404040505050505050505B6
:1026DC000505050505050505060606060606060696
:1026EC00060606060606060606060606060606067E
:1026FC000606060606060606070707070707070766
:10270C00070707070707070707070707070707074D
:10271C00070707070707070707070707070707073D
:10272C00070707070707070707070707070707072D
:10273C000707070707070707080808080808080815
:10274C0008080808080808080808080808080808FD
:10275C0008080808080808080808080808080808ED
:10276C0008080808080808080808080808080808DD
:10277C0008080808080808080808080808080808CD
:10278C0008080808080808080808080808080808BD
:10279C0008080808080808080808080808080808AD
:1027AC00080808080808080808080808080808089D
:1027BC0008080808080808080000000000000000CD
:1027CC0000000000000000000000000000000000FD
:1027DC0000000000000000000000000000000000ED
:1027EC0000000000000000000000000000000000DD
:1027FC0000000000000000000000000000000000CD
:10280C0000000000000000000000000000000000BC
:10281C000000000000000000232D302B20000000E1
:10282C00686C4C00656667454647000030313233B2
:10283C0034353637383941424344454600000000B0
:10284C00303132333435363738396162636465661A
:10285C000000000084F8FFFF9AF8FFFF5AF8FFFF12
:10286C005AF8FFFF5AF8FFFF5AF8FFFF9AF8FFFFDC
:10287C005AF8FFFF5AF8FFFF5AF8FFFF5AF8FFFF0C
:10288C00F0F9FFFFD8F8FFFFC2F9FFFF5AF8FFFF7E
:10289C005AF8FFFF20FAFFFF5AF8FFFFD8F8FFFFA6
:0C28AC005AF8FFFF5AF8FFFFCAF9FFFFBF
:1028B80000000000E427008004280080C42700806E
:1028C8000000000000000000000000000000000000
:1028D80000000000000000000000000000000000F0
:1028E80000000000000000000000000000000000E0
:1028F80000000000000000000000000000000000D0
:1029080000000000000000000000000000000000BF
:10291800B801009000B4C4040300000002000000E5
:0C29280001000000000000900000009082
:040000058000000077
:00000001FF
